{
  "_format": "hh-sol-artifact-1",
  "contractName": "WavePortal",
  "sourceName": "contracts/WavePortal.sol",
  "abi": [
    {
      "inputs": [],
      "stateMutability": "nonpayable",
      "type": "constructor"
    },
    {
      "anonymous": false,
      "inputs": [
        {
          "indexed": true,
          "internalType": "address",
          "name": "from",
          "type": "address"
        },
        {
          "indexed": false,
          "internalType": "uint256",
          "name": "timestamp",
          "type": "uint256"
        },
        {
          "indexed": false,
          "internalType": "string",
          "name": "message",
          "type": "string"
        }
      ],
      "name": "NewWave",
      "type": "event"
    },
    {
      "inputs": [
        {
          "internalType": "address",
          "name": "_address",
          "type": "address"
        }
      ],
      "name": "getAddressWaves",
      "outputs": [
        {
          "internalType": "uint256",
          "name": "",
          "type": "uint256"
        }
      ],
      "stateMutability": "view",
      "type": "function"
    },
    {
      "inputs": [],
      "name": "getAllWaves",
      "outputs": [
        {
          "components": [
            {
              "internalType": "address",
              "name": "waver",
              "type": "address"
            },
            {
              "internalType": "string",
              "name": "message",
              "type": "string"
            },
            {
              "internalType": "uint256",
              "name": "timestamp",
              "type": "uint256"
            }
          ],
          "internalType": "struct WavePortal.Wave[]",
          "name": "",
          "type": "tuple[]"
        }
      ],
      "stateMutability": "view",
      "type": "function"
    },
    {
      "inputs": [],
      "name": "getTotalWaves",
      "outputs": [
        {
          "internalType": "uint256",
          "name": "",
          "type": "uint256"
        }
      ],
      "stateMutability": "view",
      "type": "function"
    },
    {
      "inputs": [
        {
          "internalType": "string",
          "name": "_message",
          "type": "string"
        }
      ],
      "name": "wave",
      "outputs": [],
      "stateMutability": "nonpayable",
      "type": "function"
    }
  ],
  "bytecode": "0x60806040523480156200001157600080fd5b506200005d6040518060400160405280601f81526020017f436f6e747261637420776173206275696c73207375636365737366756c6c79008152506200006360201b620004e81760201c565b620001f7565b62000103816040516024016200007a919062000170565b6040516020818303038152906040527f41304fac000000000000000000000000000000000000000000000000000000007bffffffffffffffffffffffffffffffffffffffffffffffffffffffff19166020820180517bffffffffffffffffffffffffffffffffffffffffffffffffffffffff83818316178352505050506200010660201b60201c565b50565b60008151905060006a636f6e736f6c652e6c6f679050602083016000808483855afa5050505050565b60006200013c8262000194565b6200014881856200019f565b93506200015a818560208601620001b0565b6200016581620001e6565b840191505092915050565b600060208201905081810360008301526200018c81846200012f565b905092915050565b600081519050919050565b600082825260208201905092915050565b60005b83811015620001d0578082015181840152602081019050620001b3565b83811115620001e0576000848401525b50505050565b6000601f19601f8301169050919050565b610c6280620002076000396000f3fe608060405234801561001057600080fd5b506004361061004c5760003560e01c8063449d46c0146100515780639a2cdc081461006d578063bd43a9081461008b578063db4e5d85146100a9575b600080fd5b61006b600480360381019061006691906106f3565b6100d9565b005b6100756102f5565b60405161008291906108f0565b60405180910390f35b6100936102ff565b6040516100a091906108ac565b60405180910390f35b6100c360048036038101906100be91906106ca565b610450565b6040516100d091906108f0565b60405180910390f35b60018060008282546100eb91906109f7565b9250508190555060016000803373ffffffffffffffffffffffffffffffffffffffff1673ffffffffffffffffffffffffffffffffffffffff1681526020019081526020016000205410610191576000803373ffffffffffffffffffffffffffffffffffffffff1673ffffffffffffffffffffffffffffffffffffffff168152602001908152602001600020600081548092919061018790610b2e565b91905055506101d6565b60016000803373ffffffffffffffffffffffffffffffffffffffff1673ffffffffffffffffffffffffffffffffffffffff168152602001908152602001600020819055505b600260405180606001604052803373ffffffffffffffffffffffffffffffffffffffff16815260200183815260200142815250908060018154018082558091505060019003906000526020600020906003020160009091909190915060008201518160000160006101000a81548173ffffffffffffffffffffffffffffffffffffffff021916908373ffffffffffffffffffffffffffffffffffffffff16021790555060208201518160010190805190602001906102959291906105aa565b506040820151816002015550503373ffffffffffffffffffffffffffffffffffffffff167f5f7e16dc676677766a70e9c5628aa6c54ddb8b6e5188e2ae1e1f17f1ffbea71642836040516102ea92919061090b565b60405180910390a250565b6000600154905090565b60606002805480602002602001604051908101604052809291908181526020016000905b8282101561044757838290600052602060002090600302016040518060600160405290816000820160009054906101000a900473ffffffffffffffffffffffffffffffffffffffff1673ffffffffffffffffffffffffffffffffffffffff1673ffffffffffffffffffffffffffffffffffffffff1681526020016001820180546103ac90610acb565b80601f01602080910402602001604051908101604052809291908181526020018280546103d890610acb565b80156104255780601f106103fa57610100808354040283529160200191610425565b820191906000526020600020905b81548152906001019060200180831161040857829003601f168201915b5050505050815260200160028201548152505081526020019060010190610323565b50505050905090565b600060016000808473ffffffffffffffffffffffffffffffffffffffff1673ffffffffffffffffffffffffffffffffffffffff16815260200190815260200160002054106104de576000808373ffffffffffffffffffffffffffffffffffffffff1673ffffffffffffffffffffffffffffffffffffffff1681526020019081526020016000205490506104e3565b600090505b919050565b61057e816040516024016104fc91906108ce565b6040516020818303038152906040527f41304fac000000000000000000000000000000000000000000000000000000007bffffffffffffffffffffffffffffffffffffffffffffffffffffffff19166020820180517bffffffffffffffffffffffffffffffffffffffffffffffffffffffff8381831617835250505050610581565b50565b60008151905060006a636f6e736f6c652e6c6f679050602083016000808483855afa5050505050565b8280546105b690610acb565b90600052602060002090601f0160209004810192826105d8576000855561061f565b82601f106105f157805160ff191683800117855561061f565b8280016001018555821561061f579182015b8281111561061e578251825591602001919060010190610603565b5b50905061062c9190610630565b5090565b5b80821115610649576000816000905550600101610631565b5090565b600061066061065b84610960565b61093b565b90508281526020810184848401111561067857600080fd5b610683848285610a89565b509392505050565b60008135905061069a81610c15565b92915050565b600082601f8301126106b157600080fd5b81356106c184826020860161064d565b91505092915050565b6000602082840312156106dc57600080fd5b60006106ea8482850161068b565b91505092915050565b60006020828403121561070557600080fd5b600082013567ffffffffffffffff81111561071f57600080fd5b61072b848285016106a0565b91505092915050565b6000610740838361083e565b905092915050565b61075181610a4d565b82525050565b6000610762826109a1565b61076c81856109c4565b93508360208202850161077e85610991565b8060005b858110156107ba578484038952815161079b8582610734565b94506107a6836109b7565b925060208a01995050600181019050610782565b50829750879550505050505092915050565b60006107d7826109ac565b6107e181856109d5565b93506107f1818560208601610a98565b6107fa81610c04565b840191505092915050565b6000610810826109ac565b61081a81856109e6565b935061082a818560208601610a98565b61083381610c04565b840191505092915050565b60006060830160008301516108566000860182610748565b506020830151848203602086015261086e82826107cc565b9150506040830151610883604086018261088e565b508091505092915050565b61089781610a7f565b82525050565b6108a681610a7f565b82525050565b600060208201905081810360008301526108c68184610757565b905092915050565b600060208201905081810360008301526108e88184610805565b905092915050565b6000602082019050610905600083018461089d565b92915050565b6000604082019050610920600083018561089d565b81810360208301526109328184610805565b90509392505050565b6000610945610956565b90506109518282610afd565b919050565b6000604051905090565b600067ffffffffffffffff82111561097b5761097a610bd5565b5b61098482610c04565b9050602081019050919050565b6000819050602082019050919050565b600081519050919050565b600081519050919050565b6000602082019050919050565b600082825260208201905092915050565b600082825260208201905092915050565b600082825260208201905092915050565b6000610a0282610a7f565b9150610a0d83610a7f565b9250827fffffffffffffffffffffffffffffffffffffffffffffffffffffffffffffffff03821115610a4257610a41610b77565b5b828201905092915050565b6000610a5882610a5f565b9050919050565b600073ffffffffffffffffffffffffffffffffffffffff82169050919050565b6000819050919050565b82818337600083830152505050565b60005b83811015610ab6578082015181840152602081019050610a9b565b83811115610ac5576000848401525b50505050565b60006002820490506001821680610ae357607f821691505b60208210811415610af757610af6610ba6565b5b50919050565b610b0682610c04565b810181811067ffffffffffffffff82111715610b2557610b24610bd5565b5b80604052505050565b6000610b3982610a7f565b91507fffffffffffffffffffffffffffffffffffffffffffffffffffffffffffffffff821415610b6c57610b6b610b77565b5b600182019050919050565b7f4e487b7100000000000000000000000000000000000000000000000000000000600052601160045260246000fd5b7f4e487b7100000000000000000000000000000000000000000000000000000000600052602260045260246000fd5b7f4e487b7100000000000000000000000000000000000000000000000000000000600052604160045260246000fd5b6000601f19601f8301169050919050565b610c1e81610a4d565b8114610c2957600080fd5b5056fea26469706673582212206abf6404a2cc627ad562d16bd36217a8d4bca383b44167234a72f58eb3ff68e764736f6c63430008040033",
  "linkReferences": {},
  "deployedLinkReferences": {}
}