{
  "_format": "hh-sol-artifact-1",
  "contractName": "WavePortal",
  "sourceName": "contracts/WavePortal.sol",
  "abi": [
    {
      "inputs": [],
      "stateMutability": "payable",
      "type": "constructor"
    },
    {
      "anonymous": false,
      "inputs": [
        {
          "indexed": true,
          "internalType": "address",
          "name": "from",
          "type": "address"
        },
        {
          "indexed": false,
          "internalType": "uint256",
          "name": "timestamp",
          "type": "uint256"
        },
        {
          "indexed": false,
          "internalType": "string",
          "name": "message",
          "type": "string"
        }
      ],
      "name": "NewWave",
      "type": "event"
    },
    {
      "inputs": [
        {
          "internalType": "address",
          "name": "_address",
          "type": "address"
        }
      ],
      "name": "getAddressWaves",
      "outputs": [
        {
          "internalType": "uint256",
          "name": "",
          "type": "uint256"
        }
      ],
      "stateMutability": "view",
      "type": "function"
    },
    {
      "inputs": [],
      "name": "getAllWaves",
      "outputs": [
        {
          "components": [
            {
              "internalType": "address",
              "name": "waver",
              "type": "address"
            },
            {
              "internalType": "string",
              "name": "message",
              "type": "string"
            },
            {
              "internalType": "uint256",
              "name": "timestamp",
              "type": "uint256"
            }
          ],
          "internalType": "struct WavePortal.Wave[]",
          "name": "",
          "type": "tuple[]"
        }
      ],
      "stateMutability": "view",
      "type": "function"
    },
    {
      "inputs": [],
      "name": "getTotalWaves",
      "outputs": [
        {
          "internalType": "uint256",
          "name": "",
          "type": "uint256"
        }
      ],
      "stateMutability": "view",
      "type": "function"
    },
    {
      "inputs": [
        {
          "internalType": "address",
          "name": "",
          "type": "address"
        }
      ],
      "name": "lastWavedAt",
      "outputs": [
        {
          "internalType": "uint256",
          "name": "",
          "type": "uint256"
        }
      ],
      "stateMutability": "view",
      "type": "function"
    },
    {
      "inputs": [
        {
          "internalType": "string",
          "name": "_message",
          "type": "string"
        }
      ],
      "name": "wave",
      "outputs": [],
      "stateMutability": "nonpayable",
      "type": "function"
    }
  ],
  "bytecode": "0x60806040526200004f6040518060400160405280601f81526020017f436f6e747261637420776173206275696c74207375636365737366756c6c79008152506200005560201b620007451760201c565b620001e9565b620000f5816040516024016200006c919062000162565b6040516020818303038152906040527f41304fac000000000000000000000000000000000000000000000000000000007bffffffffffffffffffffffffffffffffffffffffffffffffffffffff19166020820180517bffffffffffffffffffffffffffffffffffffffffffffffffffffffff8381831617835250505050620000f860201b60201c565b50565b60008151905060006a636f6e736f6c652e6c6f679050602083016000808483855afa5050505050565b60006200012e8262000186565b6200013a818562000191565b93506200014c818560208601620001a2565b6200015781620001d8565b840191505092915050565b600060208201905081810360008301526200017e818462000121565b905092915050565b600081519050919050565b600082825260208201905092915050565b60005b83811015620001c2578082015181840152602081019050620001a5565b83811115620001d2576000848401525b50505050565b6000601f19601f8301169050919050565b6110f580620001f96000396000f3fe608060405234801561001057600080fd5b50600436106100575760003560e01c8063449d46c01461005c5780639a2cdc0814610078578063a42a466314610096578063bd43a908146100c6578063db4e5d85146100e4575b600080fd5b61007660048036038101906100719190610950565b610114565b005b61008061053a565b60405161008d9190610c4e565b60405180910390f35b6100b060048036038101906100ab9190610927565b610544565b6040516100bd9190610c4e565b60405180910390f35b6100ce61055c565b6040516100db9190610baa565b60405180910390f35b6100fe60048036038101906100f99190610927565b6106ad565b60405161010b9190610c4e565b60405180910390f35b42610384600160003373ffffffffffffffffffffffffffffffffffffffff1673ffffffffffffffffffffffffffffffffffffffff168152602001908152602001600020546101629190610d60565b106101a2576040517f08c379a000000000000000000000000000000000000000000000000000000000815260040161019990610c2e565b60405180910390fd5b42600160003373ffffffffffffffffffffffffffffffffffffffff1673ffffffffffffffffffffffffffffffffffffffff168152602001908152602001600020819055506001600260008282546101f99190610d60565b925050819055506000606460035442446102139190610d60565b61021d9190610d60565b6102279190610ee0565b90508060038190555060016000803373ffffffffffffffffffffffffffffffffffffffff1673ffffffffffffffffffffffffffffffffffffffff16815260200190815260200160002054106102cf576000803373ffffffffffffffffffffffffffffffffffffffff1673ffffffffffffffffffffffffffffffffffffffff16815260200190815260200160002060008154809291906102c590610e97565b9190505550610314565b60016000803373ffffffffffffffffffffffffffffffffffffffff1673ffffffffffffffffffffffffffffffffffffffff168152602001908152602001600020819055505b600460405180606001604052803373ffffffffffffffffffffffffffffffffffffffff16815260200184815260200142815250908060018154018082558091505060019003906000526020600020906003020160009091909190915060008201518160000160006101000a81548173ffffffffffffffffffffffffffffffffffffffff021916908373ffffffffffffffffffffffffffffffffffffffff16021790555060208201518160010190805190602001906103d3929190610807565b5060408201518160020155505060328110156104e6576000655af3107a4000905047811115610437576040517f08c379a000000000000000000000000000000000000000000000000000000000815260040161042e90610bee565b60405180910390fd5b60003373ffffffffffffffffffffffffffffffffffffffff168260405161045d90610b95565b60006040518083038185875af1925050503d806000811461049a576040519150601f19603f3d011682016040523d82523d6000602084013e61049f565b606091505b50509050806104e3576040517f08c379a00000000000000000000000000000000000000000000000000000000081526004016104da90610c0e565b60405180910390fd5b50505b3373ffffffffffffffffffffffffffffffffffffffff167f5f7e16dc676677766a70e9c5628aa6c54ddb8b6e5188e2ae1e1f17f1ffbea716428460405161052e929190610c69565b60405180910390a25050565b6000600254905090565b60016020528060005260406000206000915090505481565b60606004805480602002602001604051908101604052809291908181526020016000905b828210156106a457838290600052602060002090600302016040518060600160405290816000820160009054906101000a900473ffffffffffffffffffffffffffffffffffffffff1673ffffffffffffffffffffffffffffffffffffffff1673ffffffffffffffffffffffffffffffffffffffff16815260200160018201805461060990610e34565b80601f016020809104026020016040519081016040528092919081815260200182805461063590610e34565b80156106825780601f1061065757610100808354040283529160200191610682565b820191906000526020600020905b81548152906001019060200180831161066557829003601f168201915b5050505050815260200160028201548152505081526020019060010190610580565b50505050905090565b600060016000808473ffffffffffffffffffffffffffffffffffffffff1673ffffffffffffffffffffffffffffffffffffffff168152602001908152602001600020541061073b576000808373ffffffffffffffffffffffffffffffffffffffff1673ffffffffffffffffffffffffffffffffffffffff168152602001908152602001600020549050610740565b600090505b919050565b6107db816040516024016107599190610bcc565b6040516020818303038152906040527f41304fac000000000000000000000000000000000000000000000000000000007bffffffffffffffffffffffffffffffffffffffffffffffffffffffff19166020820180517bffffffffffffffffffffffffffffffffffffffffffffffffffffffff83818316178352505050506107de565b50565b60008151905060006a636f6e736f6c652e6c6f679050602083016000808483855afa5050505050565b82805461081390610e34565b90600052602060002090601f016020900481019282610835576000855561087c565b82601f1061084e57805160ff191683800117855561087c565b8280016001018555821561087c579182015b8281111561087b578251825591602001919060010190610860565b5b509050610889919061088d565b5090565b5b808211156108a657600081600090555060010161088e565b5090565b60006108bd6108b884610cbe565b610c99565b9050828152602081018484840111156108d557600080fd5b6108e0848285610df2565b509392505050565b6000813590506108f7816110a8565b92915050565b600082601f83011261090e57600080fd5b813561091e8482602086016108aa565b91505092915050565b60006020828403121561093957600080fd5b6000610947848285016108e8565b91505092915050565b60006020828403121561096257600080fd5b600082013567ffffffffffffffff81111561097c57600080fd5b610988848285016108fd565b91505092915050565b600061099d8383610b27565b905092915050565b6109ae81610db6565b82525050565b60006109bf82610cff565b6109c98185610d22565b9350836020820285016109db85610cef565b8060005b85811015610a1757848403895281516109f88582610991565b9450610a0383610d15565b925060208a019950506001810190506109df565b50829750879550505050505092915050565b6000610a3482610d0a565b610a3e8185610d3e565b9350610a4e818560208601610e01565b610a5781610fcd565b840191505092915050565b6000610a6d82610d0a565b610a778185610d4f565b9350610a87818560208601610e01565b610a9081610fcd565b840191505092915050565b6000610aa8603483610d4f565b9150610ab382610fde565b604082019050919050565b6000610acb602b83610d4f565b9150610ad68261102d565b604082019050919050565b6000610aee600083610d33565b9150610af98261107c565b600082019050919050565b6000610b11600f83610d4f565b9150610b1c8261107f565b602082019050919050565b6000606083016000830151610b3f60008601826109a5565b5060208301518482036020860152610b578282610a29565b9150506040830151610b6c6040860182610b77565b508091505092915050565b610b8081610de8565b82525050565b610b8f81610de8565b82525050565b6000610ba082610ae1565b9150819050919050565b60006020820190508181036000830152610bc481846109b4565b905092915050565b60006020820190508181036000830152610be68184610a62565b905092915050565b60006020820190508181036000830152610c0781610a9b565b9050919050565b60006020820190508181036000830152610c2781610abe565b9050919050565b60006020820190508181036000830152610c4781610b04565b9050919050565b6000602082019050610c636000830184610b86565b92915050565b6000604082019050610c7e6000830185610b86565b8181036020830152610c908184610a62565b90509392505050565b6000610ca3610cb4565b9050610caf8282610e66565b919050565b6000604051905090565b600067ffffffffffffffff821115610cd957610cd8610f9e565b5b610ce282610fcd565b9050602081019050919050565b6000819050602082019050919050565b600081519050919050565b600081519050919050565b6000602082019050919050565b600082825260208201905092915050565b600081905092915050565b600082825260208201905092915050565b600082825260208201905092915050565b6000610d6b82610de8565b9150610d7683610de8565b9250827fffffffffffffffffffffffffffffffffffffffffffffffffffffffffffffffff03821115610dab57610daa610f11565b5b828201905092915050565b6000610dc182610dc8565b9050919050565b600073ffffffffffffffffffffffffffffffffffffffff82169050919050565b6000819050919050565b82818337600083830152505050565b60005b83811015610e1f578082015181840152602081019050610e04565b83811115610e2e576000848401525b50505050565b60006002820490506001821680610e4c57607f821691505b60208210811415610e6057610e5f610f6f565b5b50919050565b610e6f82610fcd565b810181811067ffffffffffffffff82111715610e8e57610e8d610f9e565b5b80604052505050565b6000610ea282610de8565b91507fffffffffffffffffffffffffffffffffffffffffffffffffffffffffffffffff821415610ed557610ed4610f11565b5b600182019050919050565b6000610eeb82610de8565b9150610ef683610de8565b925082610f0657610f05610f40565b5b828206905092915050565b7f4e487b7100000000000000000000000000000000000000000000000000000000600052601160045260246000fd5b7f4e487b7100000000000000000000000000000000000000000000000000000000600052601260045260246000fd5b7f4e487b7100000000000000000000000000000000000000000000000000000000600052602260045260246000fd5b7f4e487b7100000000000000000000000000000000000000000000000000000000600052604160045260246000fd5b6000601f19601f8301169050919050565b7f547279696e6720746f207769746864726177206d6f7265206d6f6e657920746860008201527f616e2074686520636f6e7472616374206861732e000000000000000000000000602082015250565b7f4661696c656420746f207769746864726177206d6f6e65792066726f6d20746860008201527f6520636f6e74726163742e000000000000000000000000000000000000000000602082015250565b50565b7f57616974203135206d696e757465730000000000000000000000000000000000600082015250565b6110b181610db6565b81146110bc57600080fd5b5056fea264697066735822122014751bc25f74c346c69c7b79ffede93d8f8b3021c202658ec2e6a9f3b0a47d6c64736f6c63430008040033",
  "linkReferences": {},
  "deployedLinkReferences": {}
}