{
  "_format": "hh-sol-artifact-1",
  "contractName": "WavePortal",
  "sourceName": "contracts/WavePortal.sol",
  "abi": [
    {
      "inputs": [],
      "stateMutability": "payable",
      "type": "constructor"
    },
    {
      "anonymous": false,
      "inputs": [
        {
          "indexed": true,
          "internalType": "address",
          "name": "from",
          "type": "address"
        },
        {
          "indexed": false,
          "internalType": "uint256",
          "name": "timestamp",
          "type": "uint256"
        },
        {
          "indexed": false,
          "internalType": "string",
          "name": "message",
          "type": "string"
        }
      ],
      "name": "NewWave",
      "type": "event"
    },
    {
      "inputs": [
        {
          "internalType": "address",
          "name": "_address",
          "type": "address"
        }
      ],
      "name": "getAddressWaves",
      "outputs": [
        {
          "internalType": "uint256",
          "name": "",
          "type": "uint256"
        }
      ],
      "stateMutability": "view",
      "type": "function"
    },
    {
      "inputs": [],
      "name": "getAllWaves",
      "outputs": [
        {
          "components": [
            {
              "internalType": "address",
              "name": "waver",
              "type": "address"
            },
            {
              "internalType": "string",
              "name": "message",
              "type": "string"
            },
            {
              "internalType": "uint256",
              "name": "timestamp",
              "type": "uint256"
            }
          ],
          "internalType": "struct WavePortal.Wave[]",
          "name": "",
          "type": "tuple[]"
        }
      ],
      "stateMutability": "view",
      "type": "function"
    },
    {
      "inputs": [],
      "name": "getTotalWaves",
      "outputs": [
        {
          "internalType": "uint256",
          "name": "",
          "type": "uint256"
        }
      ],
      "stateMutability": "view",
      "type": "function"
    },
    {
      "inputs": [
        {
          "internalType": "string",
          "name": "_message",
          "type": "string"
        }
      ],
      "name": "wave",
      "outputs": [],
      "stateMutability": "nonpayable",
      "type": "function"
    }
  ],
  "bytecode": "0x60806040526200004f6040518060400160405280601f81526020017f436f6e747261637420776173206275696c74207375636365737366756c6c79008152506200005560201b620005e41760201c565b620001e9565b620000f5816040516024016200006c919062000162565b6040516020818303038152906040527f41304fac000000000000000000000000000000000000000000000000000000007bffffffffffffffffffffffffffffffffffffffffffffffffffffffff19166020820180517bffffffffffffffffffffffffffffffffffffffffffffffffffffffff8381831617835250505050620000f860201b60201c565b50565b60008151905060006a636f6e736f6c652e6c6f679050602083016000808483855afa5050505050565b60006200012e8262000186565b6200013a818562000191565b93506200014c818560208601620001a2565b6200015781620001d8565b840191505092915050565b600060208201905081810360008301526200017e818462000121565b905092915050565b600081519050919050565b600082825260208201905092915050565b60005b83811015620001c2578082015181840152602081019050620001a5565b83811115620001d2576000848401525b50505050565b6000601f19601f8301169050919050565b610ec880620001f96000396000f3fe608060405234801561001057600080fd5b506004361061004c5760003560e01c8063449d46c0146100515780639a2cdc081461006d578063bd43a9081461008b578063db4e5d85146100a9575b600080fd5b61006b600480360381019061006691906107ef565b6100d9565b005b6100756103f1565b6040516100829190610aaa565b60405180910390f35b6100936103fb565b6040516100a09190610a26565b60405180910390f35b6100c360048036038101906100be91906107c6565b61054c565b6040516100d09190610aaa565b60405180910390f35b60018060008282546100eb9190610bbc565b9250508190555060016000803373ffffffffffffffffffffffffffffffffffffffff1673ffffffffffffffffffffffffffffffffffffffff1681526020019081526020016000205410610191576000803373ffffffffffffffffffffffffffffffffffffffff1673ffffffffffffffffffffffffffffffffffffffff168152602001908152602001600020600081548092919061018790610cf3565b91905055506101d6565b60016000803373ffffffffffffffffffffffffffffffffffffffff1673ffffffffffffffffffffffffffffffffffffffff168152602001908152602001600020819055505b600260405180606001604052803373ffffffffffffffffffffffffffffffffffffffff16815260200183815260200142815250908060018154018082558091505060019003906000526020600020906003020160009091909190915060008201518160000160006101000a81548173ffffffffffffffffffffffffffffffffffffffff021916908373ffffffffffffffffffffffffffffffffffffffff16021790555060208201518160010190805190602001906102959291906106a6565b506040820151816002015550503373ffffffffffffffffffffffffffffffffffffffff167f5f7e16dc676677766a70e9c5628aa6c54ddb8b6e5188e2ae1e1f17f1ffbea71642836040516102ea929190610ac5565b60405180910390a26000655af3107a4000905047811115610340576040517f08c379a000000000000000000000000000000000000000000000000000000000815260040161033790610a6a565b60405180910390fd5b60003373ffffffffffffffffffffffffffffffffffffffff168260405161036690610a11565b60006040518083038185875af1925050503d80600081146103a3576040519150601f19603f3d011682016040523d82523d6000602084013e6103a8565b606091505b50509050806103ec576040517f08c379a00000000000000000000000000000000000000000000000000000000081526004016103e390610a8a565b60405180910390fd5b505050565b6000600154905090565b60606002805480602002602001604051908101604052809291908181526020016000905b8282101561054357838290600052602060002090600302016040518060600160405290816000820160009054906101000a900473ffffffffffffffffffffffffffffffffffffffff1673ffffffffffffffffffffffffffffffffffffffff1673ffffffffffffffffffffffffffffffffffffffff1681526020016001820180546104a890610c90565b80601f01602080910402602001604051908101604052809291908181526020018280546104d490610c90565b80156105215780601f106104f657610100808354040283529160200191610521565b820191906000526020600020905b81548152906001019060200180831161050457829003601f168201915b505050505081526020016002820154815250508152602001906001019061041f565b50505050905090565b600060016000808473ffffffffffffffffffffffffffffffffffffffff1673ffffffffffffffffffffffffffffffffffffffff16815260200190815260200160002054106105da576000808373ffffffffffffffffffffffffffffffffffffffff1673ffffffffffffffffffffffffffffffffffffffff1681526020019081526020016000205490506105df565b600090505b919050565b61067a816040516024016105f89190610a48565b6040516020818303038152906040527f41304fac000000000000000000000000000000000000000000000000000000007bffffffffffffffffffffffffffffffffffffffffffffffffffffffff19166020820180517bffffffffffffffffffffffffffffffffffffffffffffffffffffffff838183161783525050505061067d565b50565b60008151905060006a636f6e736f6c652e6c6f679050602083016000808483855afa5050505050565b8280546106b290610c90565b90600052602060002090601f0160209004810192826106d4576000855561071b565b82601f106106ed57805160ff191683800117855561071b565b8280016001018555821561071b579182015b8281111561071a5782518255916020019190600101906106ff565b5b509050610728919061072c565b5090565b5b8082111561074557600081600090555060010161072d565b5090565b600061075c61075784610b1a565b610af5565b90508281526020810184848401111561077457600080fd5b61077f848285610c4e565b509392505050565b60008135905061079681610e7b565b92915050565b600082601f8301126107ad57600080fd5b81356107bd848260208601610749565b91505092915050565b6000602082840312156107d857600080fd5b60006107e684828501610787565b91505092915050565b60006020828403121561080157600080fd5b600082013567ffffffffffffffff81111561081b57600080fd5b6108278482850161079c565b91505092915050565b600061083c83836109a3565b905092915050565b61084d81610c12565b82525050565b600061085e82610b5b565b6108688185610b7e565b93508360208202850161087a85610b4b565b8060005b858110156108b657848403895281516108978582610830565b94506108a283610b71565b925060208a0199505060018101905061087e565b50829750879550505050505092915050565b60006108d382610b66565b6108dd8185610b9a565b93506108ed818560208601610c5d565b6108f681610dc9565b840191505092915050565b600061090c82610b66565b6109168185610bab565b9350610926818560208601610c5d565b61092f81610dc9565b840191505092915050565b6000610947603483610bab565b915061095282610dda565b604082019050919050565b600061096a602b83610bab565b915061097582610e29565b604082019050919050565b600061098d600083610b8f565b915061099882610e78565b600082019050919050565b60006060830160008301516109bb6000860182610844565b50602083015184820360208601526109d382826108c8565b91505060408301516109e860408601826109f3565b508091505092915050565b6109fc81610c44565b82525050565b610a0b81610c44565b82525050565b6000610a1c82610980565b9150819050919050565b60006020820190508181036000830152610a408184610853565b905092915050565b60006020820190508181036000830152610a628184610901565b905092915050565b60006020820190508181036000830152610a838161093a565b9050919050565b60006020820190508181036000830152610aa38161095d565b9050919050565b6000602082019050610abf6000830184610a02565b92915050565b6000604082019050610ada6000830185610a02565b8181036020830152610aec8184610901565b90509392505050565b6000610aff610b10565b9050610b0b8282610cc2565b919050565b6000604051905090565b600067ffffffffffffffff821115610b3557610b34610d9a565b5b610b3e82610dc9565b9050602081019050919050565b6000819050602082019050919050565b600081519050919050565b600081519050919050565b6000602082019050919050565b600082825260208201905092915050565b600081905092915050565b600082825260208201905092915050565b600082825260208201905092915050565b6000610bc782610c44565b9150610bd283610c44565b9250827fffffffffffffffffffffffffffffffffffffffffffffffffffffffffffffffff03821115610c0757610c06610d3c565b5b828201905092915050565b6000610c1d82610c24565b9050919050565b600073ffffffffffffffffffffffffffffffffffffffff82169050919050565b6000819050919050565b82818337600083830152505050565b60005b83811015610c7b578082015181840152602081019050610c60565b83811115610c8a576000848401525b50505050565b60006002820490506001821680610ca857607f821691505b60208210811415610cbc57610cbb610d6b565b5b50919050565b610ccb82610dc9565b810181811067ffffffffffffffff82111715610cea57610ce9610d9a565b5b80604052505050565b6000610cfe82610c44565b91507fffffffffffffffffffffffffffffffffffffffffffffffffffffffffffffffff821415610d3157610d30610d3c565b5b600182019050919050565b7f4e487b7100000000000000000000000000000000000000000000000000000000600052601160045260246000fd5b7f4e487b7100000000000000000000000000000000000000000000000000000000600052602260045260246000fd5b7f4e487b7100000000000000000000000000000000000000000000000000000000600052604160045260246000fd5b6000601f19601f8301169050919050565b7f547279696e6720746f207769746864726177206d6f7265206d6f6e657920746860008201527f616e2074686520636f6e7472616374206861732e000000000000000000000000602082015250565b7f6661696c656420746f207769746864726177206d6f6e65792066726f6d20746860008201527f6520636f6e74726163742e000000000000000000000000000000000000000000602082015250565b50565b610e8481610c12565b8114610e8f57600080fd5b5056fea26469706673582212206fa0439755ad7c825dc5482fccf899a40df14eebfdaf41f3d2928a390bc9ebfb64736f6c63430008040033",
  "linkReferences": {},
  "deployedLinkReferences": {}
}