{
  "_format": "hh-sol-artifact-1",
  "contractName": "WavePortal",
  "sourceName": "contracts/WavePortal.sol",
  "abi": [
    {
      "inputs": [],
      "stateMutability": "payable",
      "type": "constructor"
    },
    {
      "anonymous": false,
      "inputs": [
        {
          "indexed": true,
          "internalType": "address",
          "name": "from",
          "type": "address"
        },
        {
          "indexed": false,
          "internalType": "uint256",
          "name": "timestamp",
          "type": "uint256"
        },
        {
          "indexed": false,
          "internalType": "string",
          "name": "message",
          "type": "string"
        }
      ],
      "name": "NewWave",
      "type": "event"
    },
    {
      "inputs": [
        {
          "internalType": "address",
          "name": "_address",
          "type": "address"
        }
      ],
      "name": "getAddressWaves",
      "outputs": [
        {
          "internalType": "uint256",
          "name": "",
          "type": "uint256"
        }
      ],
      "stateMutability": "view",
      "type": "function"
    },
    {
      "inputs": [],
      "name": "getAllWaves",
      "outputs": [
        {
          "components": [
            {
              "internalType": "address",
              "name": "waver",
              "type": "address"
            },
            {
              "internalType": "string",
              "name": "message",
              "type": "string"
            },
            {
              "internalType": "uint256",
              "name": "timestamp",
              "type": "uint256"
            }
          ],
          "internalType": "struct WavePortal.Wave[]",
          "name": "",
          "type": "tuple[]"
        }
      ],
      "stateMutability": "view",
      "type": "function"
    },
    {
      "inputs": [],
      "name": "getTotalWaves",
      "outputs": [
        {
          "internalType": "uint256",
          "name": "",
          "type": "uint256"
        }
      ],
      "stateMutability": "view",
      "type": "function"
    },
    {
      "inputs": [
        {
          "internalType": "address",
          "name": "",
          "type": "address"
        }
      ],
      "name": "lastWavedAt",
      "outputs": [
        {
          "internalType": "uint256",
          "name": "",
          "type": "uint256"
        }
      ],
      "stateMutability": "view",
      "type": "function"
    },
    {
      "inputs": [
        {
          "internalType": "string",
          "name": "_message",
          "type": "string"
        }
      ],
      "name": "wave",
      "outputs": [],
      "stateMutability": "nonpayable",
      "type": "function"
    }
  ],
  "bytecode": "0x60806040526200004f6040518060400160405280601f81526020017f436f6e747261637420776173206275696c74207375636365737366756c6c79008152506200005560201b620007441760201c565b620001e9565b620000f5816040516024016200006c919062000162565b6040516020818303038152906040527f41304fac000000000000000000000000000000000000000000000000000000007bffffffffffffffffffffffffffffffffffffffffffffffffffffffff19166020820180517bffffffffffffffffffffffffffffffffffffffffffffffffffffffff8381831617835250505050620000f860201b60201c565b50565b60008151905060006a636f6e736f6c652e6c6f679050602083016000808483855afa5050505050565b60006200012e8262000186565b6200013a818562000191565b93506200014c818560208601620001a2565b6200015781620001d8565b840191505092915050565b600060208201905081810360008301526200017e818462000121565b905092915050565b600081519050919050565b600082825260208201905092915050565b60005b83811015620001c2578082015181840152602081019050620001a5565b83811115620001d2576000848401525b50505050565b6000601f19601f8301169050919050565b6110f480620001f96000396000f3fe608060405234801561001057600080fd5b50600436106100575760003560e01c8063449d46c01461005c5780639a2cdc0814610078578063a42a466314610096578063bd43a908146100c6578063db4e5d85146100e4575b600080fd5b6100766004803603810190610071919061094f565b610114565b005b610080610539565b60405161008d9190610c4d565b60405180910390f35b6100b060048036038101906100ab9190610926565b610543565b6040516100bd9190610c4d565b60405180910390f35b6100ce61055b565b6040516100db9190610ba9565b60405180910390f35b6100fe60048036038101906100f99190610926565b6106ac565b60405161010b9190610c4d565b60405180910390f35b42603c600160003373ffffffffffffffffffffffffffffffffffffffff1673ffffffffffffffffffffffffffffffffffffffff168152602001908152602001600020546101619190610d5f565b106101a1576040517f08c379a000000000000000000000000000000000000000000000000000000000815260040161019890610c2d565b60405180910390fd5b42600160003373ffffffffffffffffffffffffffffffffffffffff1673ffffffffffffffffffffffffffffffffffffffff168152602001908152602001600020819055506001600260008282546101f89190610d5f565b925050819055506000606460035442446102129190610d5f565b61021c9190610d5f565b6102269190610edf565b90508060038190555060016000803373ffffffffffffffffffffffffffffffffffffffff1673ffffffffffffffffffffffffffffffffffffffff16815260200190815260200160002054106102ce576000803373ffffffffffffffffffffffffffffffffffffffff1673ffffffffffffffffffffffffffffffffffffffff16815260200190815260200160002060008154809291906102c490610e96565b9190505550610313565b60016000803373ffffffffffffffffffffffffffffffffffffffff1673ffffffffffffffffffffffffffffffffffffffff168152602001908152602001600020819055505b600460405180606001604052803373ffffffffffffffffffffffffffffffffffffffff16815260200184815260200142815250908060018154018082558091505060019003906000526020600020906003020160009091909190915060008201518160000160006101000a81548173ffffffffffffffffffffffffffffffffffffffff021916908373ffffffffffffffffffffffffffffffffffffffff16021790555060208201518160010190805190602001906103d2929190610806565b5060408201518160020155505060328110156104e5576000655af3107a4000905047811115610436576040517f08c379a000000000000000000000000000000000000000000000000000000000815260040161042d90610bed565b60405180910390fd5b60003373ffffffffffffffffffffffffffffffffffffffff168260405161045c90610b94565b60006040518083038185875af1925050503d8060008114610499576040519150601f19603f3d011682016040523d82523d6000602084013e61049e565b606091505b50509050806104e2576040517f08c379a00000000000000000000000000000000000000000000000000000000081526004016104d990610c0d565b60405180910390fd5b50505b3373ffffffffffffffffffffffffffffffffffffffff167f5f7e16dc676677766a70e9c5628aa6c54ddb8b6e5188e2ae1e1f17f1ffbea716428460405161052d929190610c68565b60405180910390a25050565b6000600254905090565b60016020528060005260406000206000915090505481565b60606004805480602002602001604051908101604052809291908181526020016000905b828210156106a357838290600052602060002090600302016040518060600160405290816000820160009054906101000a900473ffffffffffffffffffffffffffffffffffffffff1673ffffffffffffffffffffffffffffffffffffffff1673ffffffffffffffffffffffffffffffffffffffff16815260200160018201805461060890610e33565b80601f016020809104026020016040519081016040528092919081815260200182805461063490610e33565b80156106815780601f1061065657610100808354040283529160200191610681565b820191906000526020600020905b81548152906001019060200180831161066457829003601f168201915b505050505081526020016002820154815250508152602001906001019061057f565b50505050905090565b600060016000808473ffffffffffffffffffffffffffffffffffffffff1673ffffffffffffffffffffffffffffffffffffffff168152602001908152602001600020541061073a576000808373ffffffffffffffffffffffffffffffffffffffff1673ffffffffffffffffffffffffffffffffffffffff16815260200190815260200160002054905061073f565b600090505b919050565b6107da816040516024016107589190610bcb565b6040516020818303038152906040527f41304fac000000000000000000000000000000000000000000000000000000007bffffffffffffffffffffffffffffffffffffffffffffffffffffffff19166020820180517bffffffffffffffffffffffffffffffffffffffffffffffffffffffff83818316178352505050506107dd565b50565b60008151905060006a636f6e736f6c652e6c6f679050602083016000808483855afa5050505050565b82805461081290610e33565b90600052602060002090601f016020900481019282610834576000855561087b565b82601f1061084d57805160ff191683800117855561087b565b8280016001018555821561087b579182015b8281111561087a57825182559160200191906001019061085f565b5b509050610888919061088c565b5090565b5b808211156108a557600081600090555060010161088d565b5090565b60006108bc6108b784610cbd565b610c98565b9050828152602081018484840111156108d457600080fd5b6108df848285610df1565b509392505050565b6000813590506108f6816110a7565b92915050565b600082601f83011261090d57600080fd5b813561091d8482602086016108a9565b91505092915050565b60006020828403121561093857600080fd5b6000610946848285016108e7565b91505092915050565b60006020828403121561096157600080fd5b600082013567ffffffffffffffff81111561097b57600080fd5b610987848285016108fc565b91505092915050565b600061099c8383610b26565b905092915050565b6109ad81610db5565b82525050565b60006109be82610cfe565b6109c88185610d21565b9350836020820285016109da85610cee565b8060005b85811015610a1657848403895281516109f78582610990565b9450610a0283610d14565b925060208a019950506001810190506109de565b50829750879550505050505092915050565b6000610a3382610d09565b610a3d8185610d3d565b9350610a4d818560208601610e00565b610a5681610fcc565b840191505092915050565b6000610a6c82610d09565b610a768185610d4e565b9350610a86818560208601610e00565b610a8f81610fcc565b840191505092915050565b6000610aa7603483610d4e565b9150610ab282610fdd565b604082019050919050565b6000610aca602b83610d4e565b9150610ad58261102c565b604082019050919050565b6000610aed600083610d32565b9150610af88261107b565b600082019050919050565b6000610b10600f83610d4e565b9150610b1b8261107e565b602082019050919050565b6000606083016000830151610b3e60008601826109a4565b5060208301518482036020860152610b568282610a28565b9150506040830151610b6b6040860182610b76565b508091505092915050565b610b7f81610de7565b82525050565b610b8e81610de7565b82525050565b6000610b9f82610ae0565b9150819050919050565b60006020820190508181036000830152610bc381846109b3565b905092915050565b60006020820190508181036000830152610be58184610a61565b905092915050565b60006020820190508181036000830152610c0681610a9a565b9050919050565b60006020820190508181036000830152610c2681610abd565b9050919050565b60006020820190508181036000830152610c4681610b03565b9050919050565b6000602082019050610c626000830184610b85565b92915050565b6000604082019050610c7d6000830185610b85565b8181036020830152610c8f8184610a61565b90509392505050565b6000610ca2610cb3565b9050610cae8282610e65565b919050565b6000604051905090565b600067ffffffffffffffff821115610cd857610cd7610f9d565b5b610ce182610fcc565b9050602081019050919050565b6000819050602082019050919050565b600081519050919050565b600081519050919050565b6000602082019050919050565b600082825260208201905092915050565b600081905092915050565b600082825260208201905092915050565b600082825260208201905092915050565b6000610d6a82610de7565b9150610d7583610de7565b9250827fffffffffffffffffffffffffffffffffffffffffffffffffffffffffffffffff03821115610daa57610da9610f10565b5b828201905092915050565b6000610dc082610dc7565b9050919050565b600073ffffffffffffffffffffffffffffffffffffffff82169050919050565b6000819050919050565b82818337600083830152505050565b60005b83811015610e1e578082015181840152602081019050610e03565b83811115610e2d576000848401525b50505050565b60006002820490506001821680610e4b57607f821691505b60208210811415610e5f57610e5e610f6e565b5b50919050565b610e6e82610fcc565b810181811067ffffffffffffffff82111715610e8d57610e8c610f9d565b5b80604052505050565b6000610ea182610de7565b91507fffffffffffffffffffffffffffffffffffffffffffffffffffffffffffffffff821415610ed457610ed3610f10565b5b600182019050919050565b6000610eea82610de7565b9150610ef583610de7565b925082610f0557610f04610f3f565b5b828206905092915050565b7f4e487b7100000000000000000000000000000000000000000000000000000000600052601160045260246000fd5b7f4e487b7100000000000000000000000000000000000000000000000000000000600052601260045260246000fd5b7f4e487b7100000000000000000000000000000000000000000000000000000000600052602260045260246000fd5b7f4e487b7100000000000000000000000000000000000000000000000000000000600052604160045260246000fd5b6000601f19601f8301169050919050565b7f547279696e6720746f207769746864726177206d6f7265206d6f6e657920746860008201527f616e2074686520636f6e7472616374206861732e000000000000000000000000602082015250565b7f4661696c656420746f207769746864726177206d6f6e65792066726f6d20746860008201527f6520636f6e74726163742e000000000000000000000000000000000000000000602082015250565b50565b7f57616974203135206d696e757465730000000000000000000000000000000000600082015250565b6110b081610db5565b81146110bb57600080fd5b5056fea26469706673582212206764e6e77e72951dd4e5259fa92c026c2bfb96e9900a278f258d07b007a2e7a064736f6c63430008040033",
  "linkReferences": {},
  "deployedLinkReferences": {}
}