{
  "_format": "hh-sol-artifact-1",
  "contractName": "WavePortal",
  "sourceName": "contracts/WavePortal.sol",
  "abi": [
    {
      "inputs": [],
      "stateMutability": "nonpayable",
      "type": "constructor"
    },
    {
      "inputs": [
        {
          "internalType": "address",
          "name": "_address",
          "type": "address"
        }
      ],
      "name": "getAddressWaves",
      "outputs": [
        {
          "internalType": "uint256",
          "name": "",
          "type": "uint256"
        }
      ],
      "stateMutability": "view",
      "type": "function"
    },
    {
      "inputs": [],
      "name": "getTotalWaves",
      "outputs": [
        {
          "internalType": "uint256",
          "name": "",
          "type": "uint256"
        }
      ],
      "stateMutability": "view",
      "type": "function"
    },
    {
      "inputs": [],
      "name": "wave",
      "outputs": [],
      "stateMutability": "nonpayable",
      "type": "function"
    }
  ],
  "bytecode": "0x608060405234801561001057600080fd5b506100596040518060400160405280601c81526020017f4d617274792c207765206861766520746f20676f206261636b2121210000000081525061005e60201b61033c1760201c565b6101e1565b6100fa81604051602401610072919061015f565b6040516020818303038152906040527f41304fac000000000000000000000000000000000000000000000000000000007bffffffffffffffffffffffffffffffffffffffffffffffffffffffff19166020820180517bffffffffffffffffffffffffffffffffffffffffffffffffffffffff83818316178352505050506100fd60201b60201c565b50565b60008151905060006a636f6e736f6c652e6c6f679050602083016000808483855afa5050505050565b600061013182610181565b61013b818561018c565b935061014b81856020860161019d565b610154816101d0565b840191505092915050565b600060208201905081810360008301526101798184610126565b905092915050565b600081519050919050565b600082825260208201905092915050565b60005b838110156101bb5780820151818401526020810190506101a0565b838111156101ca576000848401525b50505050565b6000601f19601f8301169050919050565b61081f806101f06000396000f3fe608060405234801561001057600080fd5b50600436106100415760003560e01c80636fe15b44146100465780639a2cdc0814610050578063db4e5d851461006e575b600080fd5b61004e61009e565b005b6100586101dc565b604051610065919061064d565b60405180910390f35b6100886004803603810190610083919061054b565b610227565b604051610095919061064d565b60405180910390f35b60018060008282546100b09190610684565b9250508190555060016000803373ffffffffffffffffffffffffffffffffffffffff1673ffffffffffffffffffffffffffffffffffffffff1681526020019081526020016000205410610156576000803373ffffffffffffffffffffffffffffffffffffffff1673ffffffffffffffffffffffffffffffffffffffff168152602001908152602001600020600081548092919061014c90610749565b919050555061019b565b60016000803373ffffffffffffffffffffffffffffffffffffffff1673ffffffffffffffffffffffffffffffffffffffff168152602001908152602001600020819055505b6101da6040518060400160405280600c81526020017f2573206973207761766564210000000000000000000000000000000000000000815250336103d5565b565b600061021f6040518060400160405280601681526020017f5765206861766520256420746f74616c20776176657300000000000000000000815250600154610471565b600154905090565b60006102a66040518060400160405280601f81526020017f5468697320616464726573732068617320256420746f74616c207761766573008152506000808573ffffffffffffffffffffffffffffffffffffffff1673ffffffffffffffffffffffffffffffffffffffff16815260200190815260200160002054610471565b60016000808473ffffffffffffffffffffffffffffffffffffffff1673ffffffffffffffffffffffffffffffffffffffff1681526020019081526020016000205410610332576000808373ffffffffffffffffffffffffffffffffffffffff1673ffffffffffffffffffffffffffffffffffffffff168152602001908152602001600020549050610337565b600090505b919050565b6103d28160405160240161035091906105cb565b6040516020818303038152906040527f41304fac000000000000000000000000000000000000000000000000000000007bffffffffffffffffffffffffffffffffffffffffffffffffffffffff19166020820180517bffffffffffffffffffffffffffffffffffffffffffffffffffffffff838183161783525050505061050d565b50565b61046d82826040516024016103eb9291906105ed565b6040516020818303038152906040527f319af333000000000000000000000000000000000000000000000000000000007bffffffffffffffffffffffffffffffffffffffffffffffffffffffff19166020820180517bffffffffffffffffffffffffffffffffffffffffffffffffffffffff838183161783525050505061050d565b5050565b610509828260405160240161048792919061061d565b6040516020818303038152906040527f9710a9d0000000000000000000000000000000000000000000000000000000007bffffffffffffffffffffffffffffffffffffffffffffffffffffffff19166020820180517bffffffffffffffffffffffffffffffffffffffffffffffffffffffff838183161783525050505061050d565b5050565b60008151905060006a636f6e736f6c652e6c6f679050602083016000808483855afa5050505050565b600081359050610545816107d2565b92915050565b60006020828403121561055d57600080fd5b600061056b84828501610536565b91505092915050565b61057d816106da565b82525050565b600061058e82610668565b6105988185610673565b93506105a8818560208601610716565b6105b1816107c1565b840191505092915050565b6105c58161070c565b82525050565b600060208201905081810360008301526105e58184610583565b905092915050565b600060408201905081810360008301526106078185610583565b90506106166020830184610574565b9392505050565b600060408201905081810360008301526106378185610583565b905061064660208301846105bc565b9392505050565b600060208201905061066260008301846105bc565b92915050565b600081519050919050565b600082825260208201905092915050565b600061068f8261070c565b915061069a8361070c565b9250827fffffffffffffffffffffffffffffffffffffffffffffffffffffffffffffffff038211156106cf576106ce610792565b5b828201905092915050565b60006106e5826106ec565b9050919050565b600073ffffffffffffffffffffffffffffffffffffffff82169050919050565b6000819050919050565b60005b83811015610734578082015181840152602081019050610719565b83811115610743576000848401525b50505050565b60006107548261070c565b91507fffffffffffffffffffffffffffffffffffffffffffffffffffffffffffffffff82141561078757610786610792565b5b600182019050919050565b7f4e487b7100000000000000000000000000000000000000000000000000000000600052601160045260246000fd5b6000601f19601f8301169050919050565b6107db816106da565b81146107e657600080fd5b5056fea26469706673582212202d3992941184a3a0df95df727b6201099a59af0547fa2aeb1bdf373ef2b508b564736f6c63430008040033",
  "linkReferences": {},
  "deployedLinkReferences": {}
}